:100000000C9434000C9449000C9449000C94490061
:100010000C9449000C9449000C9449000C9449003C
:100020000C9449000C9449000C9449000C9449002C
:100030000C9449000C9449000C9449000C9449001C
:100040000C9449000C9449000C9449000C9449000C
:100050000C9449000C9449000C9449000C944900FC
:100060000C9449000C94490011241FBECFEFD8E036
:10007000DEBFCDBF11E0A0E0B1E0E6EEF2E002C0ED
:1000800005900D92A634B107D9F70E94D7000C94C1
:1000900071010C9400009093C5008093C400E0ECC3
:1000A000F0E080818260808388E18093C10086E0F7
:1000B0008093C20008959091C00095FFFCCF80937B
:1000C000C60008950F931F93CF93DF938C01C0E078
:1000D000D0E003C00E945B002196F801EC0FFD1FE9
:1000E00080818111F7CFDF91CF911F910F910895FA
:1000F0000F931F93CF93DF938C01C0E0D0E003C038
:100100000E945B002196F801EC0FFD1F8081811198
:10011000F7CF8DE00E945B008AE00E945B00DF91D8
:10012000CF911F910F910895CF93DF93CDB7DEB795
:100130002A970FB6F894DEBF0FBECDBF4AE0BE01CE
:100140006F5F7F4F0E943C010E9462002A960FB6AB
:10015000F894DEBF0FBECDBFDF91CF91089584B17B
:100160008C6284B984B18F7E84B98CB5877F8CBD55
:100170008CB584608CBD8CB580658CBD8CB5816080
:100180008CBD089585B1846085B9089585B18B7F54
:1001900085B908958EBD0DB407FEFDCF089580E0AA
:1001A0000E94CA000DB407FEFDCF8EB508950E94CF
:1001B000C2000E94AF008FEC90E00E944B0080E0F4
:1001C00091E00E94780082E191E00E9478000E9414
:1001D000C20083E00E94CA000E94CF00C82F0E9484
:1001E000C60086E291E00E9462008C2F90E00E949F
:1001F000940087E391E00E9478008FE99FE00197E7
:10020000F1F700C000000E94C20080E80E94CA000E
:1002100080E00E94CA000E94C6009FEF22E587E0AE
:10022000915020408040E1F700C0000088E391E059
:100230000E9462000E94C20082E00E94CA000E94E6
:10024000CF00C82F0E94C6008FE99FE00197F1F709
:1002500000C000008C2F90E00E94940087E391E0A2
:100260000E9478009FEF22E587E091502040804077
:10027000E1F700C00000DACFBB274A3031F4992300
:1002800022F4BDE2909581959F4F0C944801BB27C5
:10029000FB015527AA27880F991FAA1FA41710F042
:1002A000A41B83955051B9F7A05DAA3308F0A95D4E
:1002B000A193009779F7B111B1931192CB010C94EE
:1002C0006101DC01FC01672F71917723E1F732971F
:1002D00004C07C916D9370836291AE17BF07C8F321
:0602E0000895F894FFCF21
:1002E600436F6E66696775726564205350492E2E9A
:1002F6002E005374617274696E6720436F6E766563
:100306007273696F6E004D616E75666163747572A6
:1003160065722049443A200054656D7065726174B7
:060326007572653A20002B
:00000001FF
